{
  "contractName": "ERC721WithRoyalties",
  "abi": [
    {
      "inputs": [
        {
          "internalType": "string",
          "name": "name_",
          "type": "string"
        },
        {
          "internalType": "string",
          "name": "symbol_",
          "type": "string"
        }
      ],
      "stateMutability": "nonpayable",
      "type": "constructor"
    },
    {
      "anonymous": false,
      "inputs": [
        {
          "indexed": true,
          "internalType": "address",
          "name": "owner",
          "type": "address"
        },
        {
          "indexed": true,
          "internalType": "address",
          "name": "approved",
          "type": "address"
        },
        {
          "indexed": true,
          "internalType": "uint256",
          "name": "tokenId",
          "type": "uint256"
        }
      ],
      "name": "Approval",
      "type": "event"
    },
    {
      "anonymous": false,
      "inputs": [
        {
          "indexed": true,
          "internalType": "address",
          "name": "owner",
          "type": "address"
        },
        {
          "indexed": true,
          "internalType": "address",
          "name": "operator",
          "type": "address"
        },
        {
          "indexed": false,
          "internalType": "bool",
          "name": "approved",
          "type": "bool"
        }
      ],
      "name": "ApprovalForAll",
      "type": "event"
    },
    {
      "anonymous": false,
      "inputs": [
        {
          "indexed": true,
          "internalType": "address",
          "name": "from",
          "type": "address"
        },
        {
          "indexed": true,
          "internalType": "address",
          "name": "to",
          "type": "address"
        },
        {
          "indexed": true,
          "internalType": "uint256",
          "name": "tokenId",
          "type": "uint256"
        }
      ],
      "name": "Transfer",
      "type": "event"
    },
    {
      "inputs": [
        {
          "internalType": "address",
          "name": "to",
          "type": "address"
        },
        {
          "internalType": "uint256",
          "name": "tokenId",
          "type": "uint256"
        }
      ],
      "name": "approve",
      "outputs": [],
      "stateMutability": "nonpayable",
      "type": "function"
    },
    {
      "inputs": [
        {
          "internalType": "address",
          "name": "owner",
          "type": "address"
        }
      ],
      "name": "balanceOf",
      "outputs": [
        {
          "internalType": "uint256",
          "name": "",
          "type": "uint256"
        }
      ],
      "stateMutability": "view",
      "type": "function",
      "constant": true
    },
    {
      "inputs": [
        {
          "internalType": "uint256",
          "name": "tokenId",
          "type": "uint256"
        }
      ],
      "name": "getApproved",
      "outputs": [
        {
          "internalType": "address",
          "name": "",
          "type": "address"
        }
      ],
      "stateMutability": "view",
      "type": "function",
      "constant": true
    },
    {
      "inputs": [
        {
          "internalType": "address",
          "name": "owner",
          "type": "address"
        },
        {
          "internalType": "address",
          "name": "operator",
          "type": "address"
        }
      ],
      "name": "isApprovedForAll",
      "outputs": [
        {
          "internalType": "bool",
          "name": "",
          "type": "bool"
        }
      ],
      "stateMutability": "view",
      "type": "function",
      "constant": true
    },
    {
      "inputs": [],
      "name": "name",
      "outputs": [
        {
          "internalType": "string",
          "name": "",
          "type": "string"
        }
      ],
      "stateMutability": "view",
      "type": "function",
      "constant": true
    },
    {
      "inputs": [
        {
          "internalType": "uint256",
          "name": "tokenId",
          "type": "uint256"
        }
      ],
      "name": "ownerOf",
      "outputs": [
        {
          "internalType": "address",
          "name": "",
          "type": "address"
        }
      ],
      "stateMutability": "view",
      "type": "function",
      "constant": true
    },
    {
      "inputs": [
        {
          "internalType": "uint256",
          "name": "tokenId",
          "type": "uint256"
        },
        {
          "internalType": "uint256",
          "name": "value",
          "type": "uint256"
        }
      ],
      "name": "royaltyInfo",
      "outputs": [
        {
          "internalType": "address",
          "name": "receiver",
          "type": "address"
        },
        {
          "internalType": "uint256",
          "name": "royaltyAmount",
          "type": "uint256"
        }
      ],
      "stateMutability": "view",
      "type": "function",
      "constant": true
    },
    {
      "inputs": [
        {
          "internalType": "address",
          "name": "from",
          "type": "address"
        },
        {
          "internalType": "address",
          "name": "to",
          "type": "address"
        },
        {
          "internalType": "uint256",
          "name": "tokenId",
          "type": "uint256"
        }
      ],
      "name": "safeTransferFrom",
      "outputs": [],
      "stateMutability": "nonpayable",
      "type": "function"
    },
    {
      "inputs": [
        {
          "internalType": "address",
          "name": "from",
          "type": "address"
        },
        {
          "internalType": "address",
          "name": "to",
          "type": "address"
        },
        {
          "internalType": "uint256",
          "name": "tokenId",
          "type": "uint256"
        },
        {
          "internalType": "bytes",
          "name": "_data",
          "type": "bytes"
        }
      ],
      "name": "safeTransferFrom",
      "outputs": [],
      "stateMutability": "nonpayable",
      "type": "function"
    },
    {
      "inputs": [
        {
          "internalType": "address",
          "name": "operator",
          "type": "address"
        },
        {
          "internalType": "bool",
          "name": "approved",
          "type": "bool"
        }
      ],
      "name": "setApprovalForAll",
      "outputs": [],
      "stateMutability": "nonpayable",
      "type": "function"
    },
    {
      "inputs": [],
      "name": "symbol",
      "outputs": [
        {
          "internalType": "string",
          "name": "",
          "type": "string"
        }
      ],
      "stateMutability": "view",
      "type": "function",
      "constant": true
    },
    {
      "inputs": [
        {
          "internalType": "uint256",
          "name": "tokenId",
          "type": "uint256"
        }
      ],
      "name": "tokenURI",
      "outputs": [
        {
          "internalType": "string",
          "name": "",
          "type": "string"
        }
      ],
      "stateMutability": "view",
      "type": "function",
      "constant": true
    },
    {
      "inputs": [
        {
          "internalType": "address",
          "name": "from",
          "type": "address"
        },
        {
          "internalType": "address",
          "name": "to",
          "type": "address"
        },
        {
          "internalType": "uint256",
          "name": "tokenId",
          "type": "uint256"
        }
      ],
      "name": "transferFrom",
      "outputs": [],
      "stateMutability": "nonpayable",
      "type": "function"
    },
    {
      "inputs": [
        {
          "internalType": "bytes4",
          "name": "interfaceId",
          "type": "bytes4"
        }
      ],
      "name": "supportsInterface",
      "outputs": [
        {
          "internalType": "bool",
          "name": "",
          "type": "bool"
        }
      ],
      "stateMutability": "view",
      "type": "function",
      "constant": true
    },
    {
      "inputs": [
        {
          "internalType": "address",
          "name": "to",
          "type": "address"
        },
        {
          "internalType": "address",
          "name": "royaltyRecipient",
          "type": "address"
        },
        {
          "internalType": "uint256",
          "name": "royaltyValue",
          "type": "uint256"
        },
        {
          "internalType": "string",
          "name": "tokenURI",
          "type": "string"
        }
      ],
      "name": "mint",
      "outputs": [],
      "stateMutability": "nonpayable",
      "type": "function"
    },
    {
      "inputs": [
        {
          "internalType": "address[]",
          "name": "recipients",
          "type": "address[]"
        },
        {
          "internalType": "address[]",
          "name": "royaltyRecipients",
          "type": "address[]"
        },
        {
          "internalType": "uint256[]",
          "name": "royaltyValues",
          "type": "uint256[]"
        },
        {
          "internalType": "string[]",
          "name": "tokenURIs",
          "type": "string[]"
        }
      ],
      "name": "mintBatch",
      "outputs": [],
      "stateMutability": "nonpayable",
      "type": "function"
    }
  ],
  "bytecode": "0x60806040523480156200001157600080fd5b506040516200377e3803806200377e833981810160405281019062000037919062000197565b818181600190805190602001906200005192919062000075565b5080600290805190602001906200006a92919062000075565b50505050506200033b565b8280546200008390620002a7565b90600052602060002090601f016020900481019282620000a75760008555620000f3565b82601f10620000c257805160ff1916838001178555620000f3565b82800160010185558215620000f3579182015b82811115620000f2578251825591602001919060010190620000d5565b5b50905062000102919062000106565b5090565b5b808211156200012157600081600090555060010162000107565b5090565b60006200013c62000136846200023e565b6200020a565b9050828152602081018484840111156200015557600080fd5b6200016284828562000271565b509392505050565b600082601f8301126200017c57600080fd5b81516200018e84826020860162000125565b91505092915050565b60008060408385031215620001ab57600080fd5b600083015167ffffffffffffffff811115620001c657600080fd5b620001d4858286016200016a565b925050602083015167ffffffffffffffff811115620001f257600080fd5b62000200858286016200016a565b9150509250929050565b6000604051905081810181811067ffffffffffffffff821117156200023457620002336200030c565b5b8060405250919050565b600067ffffffffffffffff8211156200025c576200025b6200030c565b5b601f19601f8301169050602081019050919050565b60005b838110156200029157808201518184015260208101905062000274565b83811115620002a1576000848401525b50505050565b60006002820490506001821680620002c057607f821691505b60208210811415620002d757620002d6620002dd565b5b50919050565b7f4e487b7100000000000000000000000000000000000000000000000000000000600052602260045260246000fd5b7f4e487b7100000000000000000000000000000000000000000000000000000000600052604160045260246000fd5b613433806200034b6000396000f3fe608060405234801561001057600080fd5b50600436106101005760003560e01c80636352211e11610097578063b85cbc7911610066578063b85cbc79146102be578063b88d4fde146102da578063c87b56dd146102f6578063e985e9c51461032657610100565b80636352211e1461022457806370a082311461025457806395d89b4114610284578063a22cb465146102a257610100565b80630c730bbe116100d35780630c730bbe1461019f57806323b872dd146101bb5780632a55205a146101d757806342842e0e1461020857610100565b806301ffc9a71461010557806306fdde0314610135578063081812fc14610153578063095ea7b314610183575b600080fd5b61011f600480360381019061011a91906123c4565b610356565b60405161012c9190612c6d565b60405180910390f35b61013d610368565b60405161014a9190612c88565b60405180910390f35b61016d60048036038101906101689190612416565b6103fa565b60405161017a9190612bdd565b60405180910390f35b61019d600480360381019061019891906122c5565b61047f565b005b6101b960048036038101906101b49190612301565b610597565b005b6101d560048036038101906101d09190612144565b6107a4565b005b6101f160048036038101906101ec919061243f565b610804565b6040516101ff929190612c44565b60405180910390f35b610222600480360381019061021d9190612144565b6108d4565b005b61023e60048036038101906102399190612416565b6108f4565b60405161024b9190612bdd565b60405180910390f35b61026e600480360381019061026991906120df565b6109a6565b60405161027b9190612eea565b60405180910390f35b61028c610a5e565b6040516102999190612c88565b60405180910390f35b6102bc60048036038101906102b79190612289565b610af0565b005b6102d860048036038101906102d3919061220e565b610b06565b005b6102f460048036038101906102ef9190612193565b610b60565b005b610310600480360381019061030b9190612416565b610bc2565b60405161031d9190612c88565b60405180910390f35b610340600480360381019061033b9190612108565b610d14565b60405161034d9190612c6d565b60405180910390f35b600061036182610da8565b9050919050565b60606001805461037790613228565b80601f01602080910402602001604051908101604052809291908181526020018280546103a390613228565b80156103f05780601f106103c5576101008083540402835291602001916103f0565b820191906000526020600020905b8154815290600101906020018083116103d357829003601f168201915b5050505050905090565b600061040582610e8a565b610444576040517f08c379a000000000000000000000000000000000000000000000000000000000815260040161043b90612e4a565b60405180910390fd5b6005600083815260200190815260200160002060009054906101000a900473ffffffffffffffffffffffffffffffffffffffff169050919050565b600061048a826108f4565b90508073ffffffffffffffffffffffffffffffffffffffff168373ffffffffffffffffffffffffffffffffffffffff1614156104fb576040517f08c379a00000000000000000000000000000000000000000000000000000000081526004016104f290612eaa565b60405180910390fd5b8073ffffffffffffffffffffffffffffffffffffffff1661051a610ef6565b73ffffffffffffffffffffffffffffffffffffffff161480610549575061054881610543610ef6565b610d14565b5b610588576040517f08c379a000000000000000000000000000000000000000000000000000000000815260040161057f90612d6a565b60405180910390fd5b6105928383610efe565b505050565b60006008549050835185511480156105b0575082518551145b6105ef576040517f08c379a00000000000000000000000000000000000000000000000000000000081526004016105e690612e2a565b60405180910390fd5b60005b855181101561079557610655868281518110610637577f4e487b7100000000000000000000000000000000000000000000000000000000600052603260045260246000fd5b60200260200101518360405180602001604052806000815250610fb7565b61069f82848381518110610692577f4e487b7100000000000000000000000000000000000000000000000000000000600052603260045260246000fd5b6020026020010151611012565b60008482815181106106da577f4e487b7100000000000000000000000000000000000000000000000000000000600052603260045260246000fd5b602002602001015111156107745761077382868381518110610725577f4e487b7100000000000000000000000000000000000000000000000000000000600052603260045260246000fd5b6020026020010151868481518110610766577f4e487b7100000000000000000000000000000000000000000000000000000000600052603260045260246000fd5b6020026020010151611086565b5b818061077f9061325a565b925050808061078d9061325a565b9150506105f2565b50806008819055505050505050565b6107b56107af610ef6565b82611181565b6107f4576040517f08c379a00000000000000000000000000000000000000000000000000000000081526004016107eb90612eca565b60405180910390fd5b6107ff83838361125f565b505050565b60008060008060008681526020019081526020016000206040518060400160405290816000820160009054906101000a900473ffffffffffffffffffffffffffffffffffffffff1673ffffffffffffffffffffffffffffffffffffffff1673ffffffffffffffffffffffffffffffffffffffff1681526020016000820160149054906101000a900462ffffff1662ffffff1662ffffff1681525050905080600001519250612710816020015162ffffff16856108c091906130e4565b6108ca91906130b3565b9150509250929050565b6108ef83838360405180602001604052806000815250610b60565b505050565b6000806003600084815260200190815260200160002060009054906101000a900473ffffffffffffffffffffffffffffffffffffffff169050600073ffffffffffffffffffffffffffffffffffffffff168173ffffffffffffffffffffffffffffffffffffffff16141561099d576040517f08c379a000000000000000000000000000000000000000000000000000000000815260040161099490612daa565b60405180910390fd5b80915050919050565b60008073ffffffffffffffffffffffffffffffffffffffff168273ffffffffffffffffffffffffffffffffffffffff161415610a17576040517f08c379a0000000000000000000000000000000000000000000000000000000008152600401610a0e90612d8a565b60405180910390fd5b600460008373ffffffffffffffffffffffffffffffffffffffff1673ffffffffffffffffffffffffffffffffffffffff168152602001908152602001600020549050919050565b606060028054610a6d90613228565b80601f0160208091040260200160405190810160405280929190818152602001828054610a9990613228565b8015610ae65780601f10610abb57610100808354040283529160200191610ae6565b820191906000526020600020905b815481529060010190602001808311610ac957829003601f168201915b5050505050905090565b610b02610afb610ef6565b83836114bb565b5050565b60006008549050610b27858260405180602001604052806000815250610fb7565b610b318183611012565b6000831115610b4657610b45818585611086565b5b600181610b53919061305d565b6008819055505050505050565b610b71610b6b610ef6565b83611181565b610bb0576040517f08c379a0000000000000000000000000000000000000000000000000000000008152600401610ba790612eca565b60405180910390fd5b610bbc84848484611628565b50505050565b6060610bcd82610e8a565b610c0c576040517f08c379a0000000000000000000000000000000000000000000000000000000008152600401610c0390612e0a565b60405180910390fd5b6000600760008481526020019081526020016000208054610c2c90613228565b80601f0160208091040260200160405190810160405280929190818152602001828054610c5890613228565b8015610ca55780601f10610c7a57610100808354040283529160200191610ca5565b820191906000526020600020905b815481529060010190602001808311610c8857829003601f168201915b505050505090506000610cb6611684565b9050600081511415610ccc578192505050610d0f565b600082511115610d01578082604051602001610ce9929190612bb9565b60405160208183030381529060405292505050610d0f565b610d0a8461169b565b925050505b919050565b6000600660008473ffffffffffffffffffffffffffffffffffffffff1673ffffffffffffffffffffffffffffffffffffffff16815260200190815260200160002060008373ffffffffffffffffffffffffffffffffffffffff1673ffffffffffffffffffffffffffffffffffffffff16815260200190815260200160002060009054906101000a900460ff16905092915050565b60007f80ac58cd000000000000000000000000000000000000000000000000000000007bffffffffffffffffffffffffffffffffffffffffffffffffffffffff1916827bffffffffffffffffffffffffffffffffffffffffffffffffffffffff19161480610e7357507f5b5e139f000000000000000000000000000000000000000000000000000000007bffffffffffffffffffffffffffffffffffffffffffffffffffffffff1916827bffffffffffffffffffffffffffffffffffffffffffffffffffffffff1916145b80610e835750610e8282611742565b5b9050919050565b60008073ffffffffffffffffffffffffffffffffffffffff166003600084815260200190815260200160002060009054906101000a900473ffffffffffffffffffffffffffffffffffffffff1673ffffffffffffffffffffffffffffffffffffffff1614159050919050565b600033905090565b816005600083815260200190815260200160002060006101000a81548173ffffffffffffffffffffffffffffffffffffffff021916908373ffffffffffffffffffffffffffffffffffffffff160217905550808273ffffffffffffffffffffffffffffffffffffffff16610f71836108f4565b73ffffffffffffffffffffffffffffffffffffffff167f8c5be1e5ebec7d5bd14f71427d1e84f3dd0314c0f7b2291e5b200ac8c7c3b92560405160405180910390a45050565b610fc183836117bc565b610fce600084848461198a565b61100d576040517f08c379a000000000000000000000000000000000000000000000000000000000815260040161100490612cca565b60405180910390fd5b505050565b61101b82610e8a565b61105a576040517f08c379a000000000000000000000000000000000000000000000000000000000815260040161105190612dca565b60405180910390fd5b80600760008481526020019081526020016000209080519060200190611081929190611d50565b505050565b6127108111156110cb576040517f08c379a00000000000000000000000000000000000000000000000000000000081526004016110c290612caa565b60405180910390fd5b60405180604001604052808373ffffffffffffffffffffffffffffffffffffffff1681526020018262ffffff1681525060008085815260200190815260200160002060008201518160000160006101000a81548173ffffffffffffffffffffffffffffffffffffffff021916908373ffffffffffffffffffffffffffffffffffffffff16021790555060208201518160000160146101000a81548162ffffff021916908362ffffff160217905550905050505050565b600061118c82610e8a565b6111cb576040517f08c379a00000000000000000000000000000000000000000000000000000000081526004016111c290612d4a565b60405180910390fd5b60006111d6836108f4565b90508073ffffffffffffffffffffffffffffffffffffffff168473ffffffffffffffffffffffffffffffffffffffff16148061124557508373ffffffffffffffffffffffffffffffffffffffff1661122d846103fa565b73ffffffffffffffffffffffffffffffffffffffff16145b8061125657506112558185610d14565b5b91505092915050565b8273ffffffffffffffffffffffffffffffffffffffff1661127f826108f4565b73ffffffffffffffffffffffffffffffffffffffff16146112d5576040517f08c379a00000000000000000000000000000000000000000000000000000000081526004016112cc90612e6a565b60405180910390fd5b600073ffffffffffffffffffffffffffffffffffffffff168273ffffffffffffffffffffffffffffffffffffffff161415611345576040517f08c379a000000000000000000000000000000000000000000000000000000000815260040161133c90612d0a565b60405180910390fd5b611350838383611b21565b61135b600082610efe565b6001600460008573ffffffffffffffffffffffffffffffffffffffff1673ffffffffffffffffffffffffffffffffffffffff16815260200190815260200160002060008282546113ab919061313e565b925050819055506001600460008473ffffffffffffffffffffffffffffffffffffffff1673ffffffffffffffffffffffffffffffffffffffff1681526020019081526020016000206000828254611402919061305d565b92505081905550816003600083815260200190815260200160002060006101000a81548173ffffffffffffffffffffffffffffffffffffffff021916908373ffffffffffffffffffffffffffffffffffffffff160217905550808273ffffffffffffffffffffffffffffffffffffffff168473ffffffffffffffffffffffffffffffffffffffff167fddf252ad1be2c89b69c2b068fc378daa952ba7f163c4a11628f55a4df523b3ef60405160405180910390a4505050565b8173ffffffffffffffffffffffffffffffffffffffff168373ffffffffffffffffffffffffffffffffffffffff16141561152a576040517f08c379a000000000000000000000000000000000000000000000000000000000815260040161152190612d2a565b60405180910390fd5b80600660008573ffffffffffffffffffffffffffffffffffffffff1673ffffffffffffffffffffffffffffffffffffffff16815260200190815260200160002060008473ffffffffffffffffffffffffffffffffffffffff1673ffffffffffffffffffffffffffffffffffffffff16815260200190815260200160002060006101000a81548160ff0219169083151502179055508173ffffffffffffffffffffffffffffffffffffffff168373ffffffffffffffffffffffffffffffffffffffff167f17307eab39ab6107e8899845ad3d59bd9653f200f220920489ca2b5937696c318360405161161b9190612c6d565b60405180910390a3505050565b61163384848461125f565b61163f8484848461198a565b61167e576040517f08c379a000000000000000000000000000000000000000000000000000000000815260040161167590612cca565b60405180910390fd5b50505050565b606060405180602001604052806000815250905090565b60606116a682610e8a565b6116e5576040517f08c379a00000000000000000000000000000000000000000000000000000000081526004016116dc90612e8a565b60405180910390fd5b60006116ef611684565b9050600081511161170f576040518060200160405280600081525061173a565b8061171984611b26565b60405160200161172a929190612bb9565b6040516020818303038152906040525b915050919050565b60007f2a55205a000000000000000000000000000000000000000000000000000000007bffffffffffffffffffffffffffffffffffffffffffffffffffffffff1916827bffffffffffffffffffffffffffffffffffffffffffffffffffffffff191614806117b557506117b482611cd3565b5b9050919050565b600073ffffffffffffffffffffffffffffffffffffffff168273ffffffffffffffffffffffffffffffffffffffff16141561182c576040517f08c379a000000000000000000000000000000000000000000000000000000000815260040161182390612dea565b60405180910390fd5b61183581610e8a565b15611875576040517f08c379a000000000000000000000000000000000000000000000000000000000815260040161186c90612cea565b60405180910390fd5b61188160008383611b21565b6001600460008473ffffffffffffffffffffffffffffffffffffffff1673ffffffffffffffffffffffffffffffffffffffff16815260200190815260200160002060008282546118d1919061305d565b92505081905550816003600083815260200190815260200160002060006101000a81548173ffffffffffffffffffffffffffffffffffffffff021916908373ffffffffffffffffffffffffffffffffffffffff160217905550808273ffffffffffffffffffffffffffffffffffffffff16600073ffffffffffffffffffffffffffffffffffffffff167fddf252ad1be2c89b69c2b068fc378daa952ba7f163c4a11628f55a4df523b3ef60405160405180910390a45050565b60006119ab8473ffffffffffffffffffffffffffffffffffffffff16611d3d565b15611b14578373ffffffffffffffffffffffffffffffffffffffff1663150b7a026119d4610ef6565b8786866040518563ffffffff1660e01b81526004016119f69493929190612bf8565b602060405180830381600087803b158015611a1057600080fd5b505af1925050508015611a4157506040513d601f19601f82011682018060405250810190611a3e91906123ed565b60015b611ac4573d8060008114611a71576040519150601f19603f3d011682016040523d82523d6000602084013e611a76565b606091505b50600081511415611abc576040517f08c379a0000000000000000000000000000000000000000000000000000000008152600401611ab390612cca565b60405180910390fd5b805181602001fd5b63150b7a0260e01b7bffffffffffffffffffffffffffffffffffffffffffffffffffffffff1916817bffffffffffffffffffffffffffffffffffffffffffffffffffffffff191614915050611b19565b600190505b949350505050565b505050565b60606000821415611b6e576040518060400160405280600181526020017f30000000000000000000000000000000000000000000000000000000000000008152509050611cce565b600082905060005b60008214611ba0578080611b899061325a565b915050600a82611b9991906130b3565b9150611b76565b60008167ffffffffffffffff811115611be2577f4e487b7100000000000000000000000000000000000000000000000000000000600052604160045260246000fd5b6040519080825280601f01601f191660200182016040528015611c145781602001600182028036833780820191505090505b5090505b60008514611cc757600182611c2d919061313e565b9150600a85611c3c91906132a3565b6030611c48919061305d565b60f81b818381518110611c84577f4e487b7100000000000000000000000000000000000000000000000000000000600052603260045260246000fd5b60200101907effffffffffffffffffffffffffffffffffffffffffffffffffffffffffffff1916908160001a905350600a85611cc091906130b3565b9450611c18565b8093505050505b919050565b60007f01ffc9a7000000000000000000000000000000000000000000000000000000007bffffffffffffffffffffffffffffffffffffffffffffffffffffffff1916827bffffffffffffffffffffffffffffffffffffffffffffffffffffffff1916149050919050565b600080823b905060008111915050919050565b828054611d5c90613228565b90600052602060002090601f016020900481019282611d7e5760008555611dc5565b82601f10611d9757805160ff1916838001178555611dc5565b82800160010185558215611dc5579182015b82811115611dc4578251825591602001919060010190611da9565b5b509050611dd29190611dd6565b5090565b5b80821115611def576000816000905550600101611dd7565b5090565b6000611e06611e0184612f36565b612f05565b90508083825260208201905082856020860282011115611e2557600080fd5b60005b85811015611e555781611e3b8882611fa4565b845260208401935060208301925050600181019050611e28565b5050509392505050565b6000611e72611e6d84612f62565b612f05565b9050808382526020820190508260005b85811015611eb25781358501611e9888826120a0565b845260208401935060208301925050600181019050611e82565b5050509392505050565b6000611ecf611eca84612f8e565b612f05565b90508083825260208201905082856020860282011115611eee57600080fd5b60005b85811015611f1e5781611f0488826120ca565b845260208401935060208301925050600181019050611ef1565b5050509392505050565b6000611f3b611f3684612fba565b612f05565b905082815260208101848484011115611f5357600080fd5b611f5e8482856131e6565b509392505050565b6000611f79611f7484612fea565b612f05565b905082815260208101848484011115611f9157600080fd5b611f9c8482856131e6565b509392505050565b600081359050611fb3816133a1565b92915050565b600082601f830112611fca57600080fd5b8135611fda848260208601611df3565b91505092915050565b600082601f830112611ff457600080fd5b8135612004848260208601611e5f565b91505092915050565b600082601f83011261201e57600080fd5b813561202e848260208601611ebc565b91505092915050565b600081359050612046816133b8565b92915050565b60008135905061205b816133cf565b92915050565b600081519050612070816133cf565b92915050565b600082601f83011261208757600080fd5b8135612097848260208601611f28565b91505092915050565b600082601f8301126120b157600080fd5b81356120c1848260208601611f66565b91505092915050565b6000813590506120d9816133e6565b92915050565b6000602082840312156120f157600080fd5b60006120ff84828501611fa4565b91505092915050565b6000806040838503121561211b57600080fd5b600061212985828601611fa4565b925050602061213a85828601611fa4565b9150509250929050565b60008060006060848603121561215957600080fd5b600061216786828701611fa4565b935050602061217886828701611fa4565b9250506040612189868287016120ca565b9150509250925092565b600080600080608085870312156121a957600080fd5b60006121b787828801611fa4565b94505060206121c887828801611fa4565b93505060406121d9878288016120ca565b925050606085013567ffffffffffffffff8111156121f657600080fd5b61220287828801612076565b91505092959194509250565b6000806000806080858703121561222457600080fd5b600061223287828801611fa4565b945050602061224387828801611fa4565b9350506040612254878288016120ca565b925050606085013567ffffffffffffffff81111561227157600080fd5b61227d878288016120a0565b91505092959194509250565b6000806040838503121561229c57600080fd5b60006122aa85828601611fa4565b92505060206122bb85828601612037565b9150509250929050565b600080604083850312156122d857600080fd5b60006122e685828601611fa4565b92505060206122f7858286016120ca565b9150509250929050565b6000806000806080858703121561231757600080fd5b600085013567ffffffffffffffff81111561233157600080fd5b61233d87828801611fb9565b945050602085013567ffffffffffffffff81111561235a57600080fd5b61236687828801611fb9565b935050604085013567ffffffffffffffff81111561238357600080fd5b61238f8782880161200d565b925050606085013567ffffffffffffffff8111156123ac57600080fd5b6123b887828801611fe3565b91505092959194509250565b6000602082840312156123d657600080fd5b60006123e48482850161204c565b91505092915050565b6000602082840312156123ff57600080fd5b600061240d84828501612061565b91505092915050565b60006020828403121561242857600080fd5b6000612436848285016120ca565b91505092915050565b6000806040838503121561245257600080fd5b6000612460858286016120ca565b9250506020612471858286016120ca565b9150509250929050565b61248481613172565b82525050565b61249381613184565b82525050565b60006124a48261301a565b6124ae8185613030565b93506124be8185602086016131f5565b6124c781613390565b840191505092915050565b60006124dd82613025565b6124e78185613041565b93506124f78185602086016131f5565b61250081613390565b840191505092915050565b600061251682613025565b6125208185613052565b93506125308185602086016131f5565b80840191505092915050565b6000612549601a83613041565b91507f45524332393831526f79616c746965733a20546f6f20686967680000000000006000830152602082019050919050565b6000612589603283613041565b91507f4552433732313a207472616e7366657220746f206e6f6e20455243373231526560008301527f63656976657220696d706c656d656e74657200000000000000000000000000006020830152604082019050919050565b60006125ef601c83613041565b91507f4552433732313a20746f6b656e20616c7265616479206d696e746564000000006000830152602082019050919050565b600061262f602483613041565b91507f4552433732313a207472616e7366657220746f20746865207a65726f2061646460008301527f72657373000000000000000000000000000000000000000000000000000000006020830152604082019050919050565b6000612695601983613041565b91507f4552433732313a20617070726f766520746f2063616c6c6572000000000000006000830152602082019050919050565b60006126d5602c83613041565b91507f4552433732313a206f70657261746f7220717565727920666f72206e6f6e657860008301527f697374656e7420746f6b656e00000000000000000000000000000000000000006020830152604082019050919050565b600061273b603883613041565b91507f4552433732313a20617070726f76652063616c6c6572206973206e6f74206f7760008301527f6e6572206e6f7220617070726f76656420666f7220616c6c00000000000000006020830152604082019050919050565b60006127a1602a83613041565b91507f4552433732313a2062616c616e636520717565727920666f7220746865207a6560008301527f726f2061646472657373000000000000000000000000000000000000000000006020830152604082019050919050565b6000612807602983613041565b91507f4552433732313a206f776e657220717565727920666f72206e6f6e657869737460008301527f656e7420746f6b656e00000000000000000000000000000000000000000000006020830152604082019050919050565b600061286d602e83613041565b91507f45524337323155524953746f726167653a2055524920736574206f66206e6f6e60008301527f6578697374656e7420746f6b656e0000000000000000000000000000000000006020830152604082019050919050565b60006128d3602083613041565b91507f4552433732313a206d696e7420746f20746865207a65726f20616464726573736000830152602082019050919050565b6000612913603183613041565b91507f45524337323155524953746f726167653a2055524920717565727920666f722060008301527f6e6f6e6578697374656e7420746f6b656e0000000000000000000000000000006020830152604082019050919050565b6000612979601e83613041565b91507f4552433732313a20417272617973206c656e677468206d69736d6174636800006000830152602082019050919050565b60006129b9602c83613041565b91507f4552433732313a20617070726f76656420717565727920666f72206e6f6e657860008301527f697374656e7420746f6b656e00000000000000000000000000000000000000006020830152604082019050919050565b6000612a1f602983613041565b91507f4552433732313a207472616e73666572206f6620746f6b656e2074686174206960008301527f73206e6f74206f776e00000000000000000000000000000000000000000000006020830152604082019050919050565b6000612a85602f83613041565b91507f4552433732314d657461646174613a2055524920717565727920666f72206e6f60008301527f6e6578697374656e7420746f6b656e00000000000000000000000000000000006020830152604082019050919050565b6000612aeb602183613041565b91507f4552433732313a20617070726f76616c20746f2063757272656e74206f776e6560008301527f72000000000000000000000000000000000000000000000000000000000000006020830152604082019050919050565b6000612b51603183613041565b91507f4552433732313a207472616e736665722063616c6c6572206973206e6f74206f60008301527f776e6572206e6f7220617070726f7665640000000000000000000000000000006020830152604082019050919050565b612bb3816131dc565b82525050565b6000612bc5828561250b565b9150612bd1828461250b565b91508190509392505050565b6000602082019050612bf2600083018461247b565b92915050565b6000608082019050612c0d600083018761247b565b612c1a602083018661247b565b612c276040830185612baa565b8181036060830152612c398184612499565b905095945050505050565b6000604082019050612c59600083018561247b565b612c666020830184612baa565b9392505050565b6000602082019050612c82600083018461248a565b92915050565b60006020820190508181036000830152612ca281846124d2565b905092915050565b60006020820190508181036000830152612cc38161253c565b9050919050565b60006020820190508181036000830152612ce38161257c565b9050919050565b60006020820190508181036000830152612d03816125e2565b9050919050565b60006020820190508181036000830152612d2381612622565b9050919050565b60006020820190508181036000830152612d4381612688565b9050919050565b60006020820190508181036000830152612d63816126c8565b9050919050565b60006020820190508181036000830152612d838161272e565b9050919050565b60006020820190508181036000830152612da381612794565b9050919050565b60006020820190508181036000830152612dc3816127fa565b9050919050565b60006020820190508181036000830152612de381612860565b9050919050565b60006020820190508181036000830152612e03816128c6565b9050919050565b60006020820190508181036000830152612e2381612906565b9050919050565b60006020820190508181036000830152612e438161296c565b9050919050565b60006020820190508181036000830152612e63816129ac565b9050919050565b60006020820190508181036000830152612e8381612a12565b9050919050565b60006020820190508181036000830152612ea381612a78565b9050919050565b60006020820190508181036000830152612ec381612ade565b9050919050565b60006020820190508181036000830152612ee381612b44565b9050919050565b6000602082019050612eff6000830184612baa565b92915050565b6000604051905081810181811067ffffffffffffffff82111715612f2c57612f2b613361565b5b8060405250919050565b600067ffffffffffffffff821115612f5157612f50613361565b5b602082029050602081019050919050565b600067ffffffffffffffff821115612f7d57612f7c613361565b5b602082029050602081019050919050565b600067ffffffffffffffff821115612fa957612fa8613361565b5b602082029050602081019050919050565b600067ffffffffffffffff821115612fd557612fd4613361565b5b601f19601f8301169050602081019050919050565b600067ffffffffffffffff82111561300557613004613361565b5b601f19601f8301169050602081019050919050565b600081519050919050565b600081519050919050565b600082825260208201905092915050565b600082825260208201905092915050565b600081905092915050565b6000613068826131dc565b9150613073836131dc565b9250827fffffffffffffffffffffffffffffffffffffffffffffffffffffffffffffffff038211156130a8576130a76132d4565b5b828201905092915050565b60006130be826131dc565b91506130c9836131dc565b9250826130d9576130d8613303565b5b828204905092915050565b60006130ef826131dc565b91506130fa836131dc565b9250817fffffffffffffffffffffffffffffffffffffffffffffffffffffffffffffffff0483118215151615613133576131326132d4565b5b828202905092915050565b6000613149826131dc565b9150613154836131dc565b925082821015613167576131666132d4565b5b828203905092915050565b600061317d826131bc565b9050919050565b60008115159050919050565b60007fffffffff0000000000000000000000000000000000000000000000000000000082169050919050565b600073ffffffffffffffffffffffffffffffffffffffff82169050919050565b6000819050919050565b82818337600083830152505050565b60005b838110156132135780820151818401526020810190506131f8565b83811115613222576000848401525b50505050565b6000600282049050600182168061324057607f821691505b6020821081141561325457613253613332565b5b50919050565b6000613265826131dc565b91507fffffffffffffffffffffffffffffffffffffffffffffffffffffffffffffffff821415613298576132976132d4565b5b600182019050919050565b60006132ae826131dc565b91506132b9836131dc565b9250826132c9576132c8613303565b5b828206905092915050565b7f4e487b7100000000000000000000000000000000000000000000000000000000600052601160045260246000fd5b7f4e487b7100000000000000000000000000000000000000000000000000000000600052601260045260246000fd5b7f4e487b7100000000000000000000000000000000000000000000000000000000600052602260045260246000fd5b7f4e487b7100000000000000000000000000000000000000000000000000000000600052604160045260246000fd5b6000601f19601f8301169050919050565b6133aa81613172565b81146133b557600080fd5b50565b6133c181613184565b81146133cc57600080fd5b50565b6133d881613190565b81146133e357600080fd5b50565b6133ef816131dc565b81146133fa57600080fd5b5056fea2646970667358221220eb83a0ba1e704a7dd1511db589a3ff90b87769799506e0132335daee397fabbc64736f6c63430008000033",
  "immutableReferences": {},
  "source": "//SPDX-License-Identifier: MIT\npragma solidity ^0.8.0;\n\nimport '@openzeppelin/contracts/token/ERC721/ERC721.sol';\nimport \"@openzeppelin/contracts/token/ERC721/extensions/ERC721URIStorage.sol\";\nimport '../ERC2981PerTokenRoyalties.sol';\n\n/// @title METASLATE NFT Minting Contract\n/// @author Intrepid Development Pty Ltd\n/// @notice This creates an NFT with both royalties and URIStorage. Designed for the METASLATE Platform Metaslate.com\ncontract ERC721WithRoyalties is ERC2981PerTokenRoyalties, ERC721URIStorage {\n    uint256 nextTokenId;\n\n    constructor(string memory name_, string memory symbol_)\n        ERC721(name_, symbol_)\n    {}\n\n    /// @inheritdoc\tERC165\n    function supportsInterface(bytes4 interfaceId)\n        public\n        view\n        virtual\n        override(ERC721, ERC2981Base)\n        returns (bool)\n    {\n        return super.supportsInterface(interfaceId);\n    }\n\n    /// @notice Mint one token to `to`\n    /// @param to the recipient of the token\n    /// @param royaltyRecipient the recipient for royalties (if royaltyValue > 0)\n    /// @param royaltyValue the royalties asked for (EIP2981)\n    function mint(\n        address to,\n        address royaltyRecipient,\n        uint256 royaltyValue,\n        string memory tokenURI\n    ) external {\n        uint256 tokenId = nextTokenId;\n        _safeMint(to, tokenId, \"\");\n        _setTokenURI(tokenId, tokenURI);\n        if (royaltyValue > 0) {\n            _setTokenRoyalty(tokenId, royaltyRecipient, royaltyValue);\n        }\n\n        nextTokenId = tokenId + 1;\n    }\n\n    /// @notice Mint several tokens at once\n    /// @param recipients an array of recipients for each token\n    /// @param royaltyRecipients an array of recipients for royalties (if royaltyValues[i] > 0)\n    /// @param royaltyValues an array of royalties asked for (EIP2981)\n    function mintBatch(\n        address[] memory recipients,\n        address[] memory royaltyRecipients,\n        uint256[] memory royaltyValues,\n        string[] memory tokenURIs\n    ) external {\n        uint256 tokenId = nextTokenId;\n        require(\n            recipients.length == royaltyRecipients.length &&\n                recipients.length == royaltyValues.length,\n            'ERC721: Arrays length mismatch'\n        );\n\n        for (uint256 i; i < recipients.length; i++) {\n            _safeMint(recipients[i], tokenId, '');\n            _setTokenURI(tokenId, tokenURIs[i]);\n            if (royaltyValues[i] > 0) {\n                _setTokenRoyalty(\n                    tokenId,\n                    royaltyRecipients[i],\n                    royaltyValues[i]\n                );\n            }\n            tokenId++;\n        }\n\n        nextTokenId = tokenId;\n    }\n}\n",
  "sourcePath": "/Users/intrepidshape/Documents/Projects/EIP2981-implementation/contracts/mocks/ERC721WithRoyalties.sol",
  "compiler": {
    "name": "solc",
    "version": "0.8.0+commit.c7dfd78e.Emscripten.clang"
  },
  "schemaVersion": "3.4.3",
  "updatedAt": "2021-12-27T05:24:07.214Z",
  "networkType": "ethereum",
  "devdoc": {
    "author": "Intrepid Development Pty Ltd",
    "kind": "dev",
    "methods": {
      "approve(address,uint256)": {
        "details": "See {IERC721-approve}."
      },
      "balanceOf(address)": {
        "details": "See {IERC721-balanceOf}."
      },
      "getApproved(uint256)": {
        "details": "See {IERC721-getApproved}."
      },
      "isApprovedForAll(address,address)": {
        "details": "See {IERC721-isApprovedForAll}."
      },
      "mint(address,address,uint256,string)": {
        "params": {
          "royaltyRecipient": "the recipient for royalties (if royaltyValue > 0)",
          "royaltyValue": "the royalties asked for (EIP2981)",
          "to": "the recipient of the token"
        }
      },
      "mintBatch(address[],address[],uint256[],string[])": {
        "params": {
          "recipients": "an array of recipients for each token",
          "royaltyRecipients": "an array of recipients for royalties (if royaltyValues[i] > 0)",
          "royaltyValues": "an array of royalties asked for (EIP2981)"
        }
      },
      "name()": {
        "details": "See {IERC721Metadata-name}."
      },
      "ownerOf(uint256)": {
        "details": "See {IERC721-ownerOf}."
      },
      "royaltyInfo(uint256,uint256)": {
        "params": {
          "_tokenId": "- the NFT asset queried for royalty information",
          "_value": "- the sale price of the NFT asset specified by _tokenId"
        },
        "returns": {
          "receiver": "- address of who should be sent the royalty payment",
          "royaltyAmount": "- the royalty payment amount for value sale price"
        }
      },
      "safeTransferFrom(address,address,uint256)": {
        "details": "See {IERC721-safeTransferFrom}."
      },
      "safeTransferFrom(address,address,uint256,bytes)": {
        "details": "See {IERC721-safeTransferFrom}."
      },
      "setApprovalForAll(address,bool)": {
        "details": "See {IERC721-setApprovalForAll}."
      },
      "supportsInterface(bytes4)": {
        "details": "See {IERC165-supportsInterface}."
      },
      "symbol()": {
        "details": "See {IERC721Metadata-symbol}."
      },
      "tokenURI(uint256)": {
        "details": "See {IERC721Metadata-tokenURI}."
      },
      "transferFrom(address,address,uint256)": {
        "details": "See {IERC721-transferFrom}."
      }
    },
    "title": "METASLATE NFT Minting Contract",
    "version": 1
  },
  "userdoc": {
    "kind": "user",
    "methods": {
      "mint(address,address,uint256,string)": {
        "notice": "Mint one token to `to`"
      },
      "mintBatch(address[],address[],uint256[],string[])": {
        "notice": "Mint several tokens at once"
      }
    },
    "notice": "This creates an NFT with both royalties and URIStorage. Designed for the METASLATE Platform Metaslate.com",
    "version": 1
  }
}