{
  "contractName": "ERC721WithRoyalties",
  "abi": [
    {
      "inputs": [
        {
          "internalType": "string",
          "name": "name_",
          "type": "string"
        },
        {
          "internalType": "string",
          "name": "symbol_",
          "type": "string"
        }
      ],
      "stateMutability": "nonpayable",
      "type": "constructor"
    },
    {
      "anonymous": false,
      "inputs": [
        {
          "indexed": true,
          "internalType": "address",
          "name": "owner",
          "type": "address"
        },
        {
          "indexed": true,
          "internalType": "address",
          "name": "approved",
          "type": "address"
        },
        {
          "indexed": true,
          "internalType": "uint256",
          "name": "tokenId",
          "type": "uint256"
        }
      ],
      "name": "Approval",
      "type": "event"
    },
    {
      "anonymous": false,
      "inputs": [
        {
          "indexed": true,
          "internalType": "address",
          "name": "owner",
          "type": "address"
        },
        {
          "indexed": true,
          "internalType": "address",
          "name": "operator",
          "type": "address"
        },
        {
          "indexed": false,
          "internalType": "bool",
          "name": "approved",
          "type": "bool"
        }
      ],
      "name": "ApprovalForAll",
      "type": "event"
    },
    {
      "anonymous": false,
      "inputs": [
        {
          "indexed": true,
          "internalType": "address",
          "name": "from",
          "type": "address"
        },
        {
          "indexed": true,
          "internalType": "address",
          "name": "to",
          "type": "address"
        },
        {
          "indexed": true,
          "internalType": "uint256",
          "name": "tokenId",
          "type": "uint256"
        }
      ],
      "name": "Transfer",
      "type": "event"
    },
    {
      "inputs": [
        {
          "internalType": "address",
          "name": "to",
          "type": "address"
        },
        {
          "internalType": "uint256",
          "name": "tokenId",
          "type": "uint256"
        }
      ],
      "name": "approve",
      "outputs": [],
      "stateMutability": "nonpayable",
      "type": "function"
    },
    {
      "inputs": [
        {
          "internalType": "address",
          "name": "owner",
          "type": "address"
        }
      ],
      "name": "balanceOf",
      "outputs": [
        {
          "internalType": "uint256",
          "name": "",
          "type": "uint256"
        }
      ],
      "stateMutability": "view",
      "type": "function",
      "constant": true
    },
    {
      "inputs": [
        {
          "internalType": "uint256",
          "name": "tokenId",
          "type": "uint256"
        }
      ],
      "name": "getApproved",
      "outputs": [
        {
          "internalType": "address",
          "name": "",
          "type": "address"
        }
      ],
      "stateMutability": "view",
      "type": "function",
      "constant": true
    },
    {
      "inputs": [
        {
          "internalType": "address",
          "name": "owner",
          "type": "address"
        },
        {
          "internalType": "address",
          "name": "operator",
          "type": "address"
        }
      ],
      "name": "isApprovedForAll",
      "outputs": [
        {
          "internalType": "bool",
          "name": "",
          "type": "bool"
        }
      ],
      "stateMutability": "view",
      "type": "function",
      "constant": true
    },
    {
      "inputs": [],
      "name": "name",
      "outputs": [
        {
          "internalType": "string",
          "name": "",
          "type": "string"
        }
      ],
      "stateMutability": "view",
      "type": "function",
      "constant": true
    },
    {
      "inputs": [
        {
          "internalType": "uint256",
          "name": "tokenId",
          "type": "uint256"
        }
      ],
      "name": "ownerOf",
      "outputs": [
        {
          "internalType": "address",
          "name": "",
          "type": "address"
        }
      ],
      "stateMutability": "view",
      "type": "function",
      "constant": true
    },
    {
      "inputs": [
        {
          "internalType": "uint256",
          "name": "tokenId",
          "type": "uint256"
        },
        {
          "internalType": "uint256",
          "name": "value",
          "type": "uint256"
        }
      ],
      "name": "royaltyInfo",
      "outputs": [
        {
          "internalType": "address",
          "name": "receiver",
          "type": "address"
        },
        {
          "internalType": "uint256",
          "name": "royaltyAmount",
          "type": "uint256"
        }
      ],
      "stateMutability": "view",
      "type": "function",
      "constant": true
    },
    {
      "inputs": [
        {
          "internalType": "address",
          "name": "from",
          "type": "address"
        },
        {
          "internalType": "address",
          "name": "to",
          "type": "address"
        },
        {
          "internalType": "uint256",
          "name": "tokenId",
          "type": "uint256"
        }
      ],
      "name": "safeTransferFrom",
      "outputs": [],
      "stateMutability": "nonpayable",
      "type": "function"
    },
    {
      "inputs": [
        {
          "internalType": "address",
          "name": "from",
          "type": "address"
        },
        {
          "internalType": "address",
          "name": "to",
          "type": "address"
        },
        {
          "internalType": "uint256",
          "name": "tokenId",
          "type": "uint256"
        },
        {
          "internalType": "bytes",
          "name": "_data",
          "type": "bytes"
        }
      ],
      "name": "safeTransferFrom",
      "outputs": [],
      "stateMutability": "nonpayable",
      "type": "function"
    },
    {
      "inputs": [
        {
          "internalType": "address",
          "name": "operator",
          "type": "address"
        },
        {
          "internalType": "bool",
          "name": "approved",
          "type": "bool"
        }
      ],
      "name": "setApprovalForAll",
      "outputs": [],
      "stateMutability": "nonpayable",
      "type": "function"
    },
    {
      "inputs": [],
      "name": "symbol",
      "outputs": [
        {
          "internalType": "string",
          "name": "",
          "type": "string"
        }
      ],
      "stateMutability": "view",
      "type": "function",
      "constant": true
    },
    {
      "inputs": [
        {
          "internalType": "uint256",
          "name": "tokenId",
          "type": "uint256"
        }
      ],
      "name": "tokenURI",
      "outputs": [
        {
          "internalType": "string",
          "name": "",
          "type": "string"
        }
      ],
      "stateMutability": "view",
      "type": "function",
      "constant": true
    },
    {
      "inputs": [
        {
          "internalType": "address",
          "name": "from",
          "type": "address"
        },
        {
          "internalType": "address",
          "name": "to",
          "type": "address"
        },
        {
          "internalType": "uint256",
          "name": "tokenId",
          "type": "uint256"
        }
      ],
      "name": "transferFrom",
      "outputs": [],
      "stateMutability": "nonpayable",
      "type": "function"
    },
    {
      "inputs": [
        {
          "internalType": "bytes4",
          "name": "interfaceId",
          "type": "bytes4"
        }
      ],
      "name": "supportsInterface",
      "outputs": [
        {
          "internalType": "bool",
          "name": "",
          "type": "bool"
        }
      ],
      "stateMutability": "view",
      "type": "function",
      "constant": true
    },
    {
      "inputs": [
        {
          "internalType": "address",
          "name": "to",
          "type": "address"
        },
        {
          "internalType": "address",
          "name": "royaltyRecipient",
          "type": "address"
        },
        {
          "internalType": "uint256",
          "name": "royaltyValue",
          "type": "uint256"
        }
      ],
      "name": "mint",
      "outputs": [],
      "stateMutability": "nonpayable",
      "type": "function"
    },
    {
      "inputs": [
        {
          "internalType": "address[]",
          "name": "recipients",
          "type": "address[]"
        },
        {
          "internalType": "address[]",
          "name": "royaltyRecipients",
          "type": "address[]"
        },
        {
          "internalType": "uint256[]",
          "name": "royaltyValues",
          "type": "uint256[]"
        }
      ],
      "name": "mintBatch",
      "outputs": [],
      "stateMutability": "nonpayable",
      "type": "function"
    }
  ],
  "bytecode": "0x60806040523480156200001157600080fd5b50604051620031c3380380620031c3833981810160405281019062000037919062000197565b818181600090805190602001906200005192919062000075565b5080600190805190602001906200006a92919062000075565b50505050506200033b565b8280546200008390620002a7565b90600052602060002090601f016020900481019282620000a75760008555620000f3565b82601f10620000c257805160ff1916838001178555620000f3565b82800160010185558215620000f3579182015b82811115620000f2578251825591602001919060010190620000d5565b5b50905062000102919062000106565b5090565b5b808211156200012157600081600090555060010162000107565b5090565b60006200013c62000136846200023e565b6200020a565b9050828152602081018484840111156200015557600080fd5b6200016284828562000271565b509392505050565b600082601f8301126200017c57600080fd5b81516200018e84826020860162000125565b91505092915050565b60008060408385031215620001ab57600080fd5b600083015167ffffffffffffffff811115620001c657600080fd5b620001d4858286016200016a565b925050602083015167ffffffffffffffff811115620001f257600080fd5b62000200858286016200016a565b9150509250929050565b6000604051905081810181811067ffffffffffffffff821117156200023457620002336200030c565b5b8060405250919050565b600067ffffffffffffffff8211156200025c576200025b6200030c565b5b601f19601f8301169050602081019050919050565b60005b838110156200029157808201518184015260208101905062000274565b83811115620002a1576000848401525b50505050565b60006002820490506001821680620002c057607f821691505b60208210811415620002d757620002d6620002dd565b5b50919050565b7f4e487b7100000000000000000000000000000000000000000000000000000000600052602260045260246000fd5b7f4e487b7100000000000000000000000000000000000000000000000000000000600052604160045260246000fd5b612e78806200034b6000396000f3fe608060405234801561001057600080fd5b50600436106101005760003560e01c806370a0823111610097578063c6c3bbe611610066578063c6c3bbe6146102be578063c87b56dd146102da578063ccee286d1461030a578063e985e9c51461032657610100565b806370a082311461023857806395d89b4114610268578063a22cb46514610286578063b88d4fde146102a257610100565b806323b872dd116100d357806323b872dd1461019f5780632a55205a146101bb57806342842e0e146101ec5780636352211e1461020857610100565b806301ffc9a71461010557806306fdde0314610135578063081812fc14610153578063095ea7b314610183575b600080fd5b61011f600480360381019061011a9190611f71565b610356565b60405161012c919061274e565b60405180910390f35b61013d610368565b60405161014a9190612769565b60405180910390f35b61016d60048036038101906101689190611fc3565b6103fa565b60405161017a91906126be565b60405180910390f35b61019d60048036038101906101989190611e9e565b61047f565b005b6101b960048036038101906101b49190611d98565b610597565b005b6101d560048036038101906101d09190611fec565b6105f7565b6040516101e3929190612725565b60405180910390f35b61020660048036038101906102019190611d98565b6106c8565b005b610222600480360381019061021d9190611fc3565b6106e8565b60405161022f91906126be565b60405180910390f35b610252600480360381019061024d9190611d33565b61079a565b60405161025f919061298b565b60405180910390f35b610270610852565b60405161027d9190612769565b60405180910390f35b6102a0600480360381019061029b9190611e62565b6108e4565b005b6102bc60048036038101906102b79190611de7565b6108fa565b005b6102d860048036038101906102d39190611d98565b61095c565b005b6102f460048036038101906102ef9190611fc3565b6109ab565b6040516103019190612769565b60405180910390f35b610324600480360381019061031f9190611eda565b610a52565b005b610340600480360381019061033b9190611d5c565b610c14565b60405161034d919061274e565b60405180910390f35b600061036182610ca8565b9050919050565b60606000805461037790612c6d565b80601f01602080910402602001604051908101604052809291908181526020018280546103a390612c6d565b80156103f05780601f106103c5576101008083540402835291602001916103f0565b820191906000526020600020905b8154815290600101906020018083116103d357829003601f168201915b5050505050905090565b600061040582610d22565b610444576040517f08c379a000000000000000000000000000000000000000000000000000000000815260040161043b906128eb565b60405180910390fd5b6004600083815260200190815260200160002060009054906101000a900473ffffffffffffffffffffffffffffffffffffffff169050919050565b600061048a826106e8565b90508073ffffffffffffffffffffffffffffffffffffffff168373ffffffffffffffffffffffffffffffffffffffff1614156104fb576040517f08c379a00000000000000000000000000000000000000000000000000000000081526004016104f29061294b565b60405180910390fd5b8073ffffffffffffffffffffffffffffffffffffffff1661051a610d8e565b73ffffffffffffffffffffffffffffffffffffffff161480610549575061054881610543610d8e565b610c14565b5b610588576040517f08c379a000000000000000000000000000000000000000000000000000000000815260040161057f9061284b565b60405180910390fd5b6105928383610d96565b505050565b6105a86105a2610d8e565b82610e4f565b6105e7576040517f08c379a00000000000000000000000000000000000000000000000000000000081526004016105de9061296b565b60405180910390fd5b6105f2838383610f2d565b505050565b6000806000600660008681526020019081526020016000206040518060400160405290816000820160009054906101000a900473ffffffffffffffffffffffffffffffffffffffff1673ffffffffffffffffffffffffffffffffffffffff1673ffffffffffffffffffffffffffffffffffffffff1681526020016000820160149054906101000a900462ffffff1662ffffff1662ffffff1681525050905080600001519250612710816020015162ffffff16856106b49190612b29565b6106be9190612af8565b9150509250929050565b6106e3838383604051806020016040528060008152506108fa565b505050565b6000806002600084815260200190815260200160002060009054906101000a900473ffffffffffffffffffffffffffffffffffffffff169050600073ffffffffffffffffffffffffffffffffffffffff168173ffffffffffffffffffffffffffffffffffffffff161415610791576040517f08c379a00000000000000000000000000000000000000000000000000000000081526004016107889061288b565b60405180910390fd5b80915050919050565b60008073ffffffffffffffffffffffffffffffffffffffff168273ffffffffffffffffffffffffffffffffffffffff16141561080b576040517f08c379a00000000000000000000000000000000000000000000000000000000081526004016108029061286b565b60405180910390fd5b600360008373ffffffffffffffffffffffffffffffffffffffff1673ffffffffffffffffffffffffffffffffffffffff168152602001908152602001600020549050919050565b60606001805461086190612c6d565b80601f016020809104026020016040519081016040528092919081815260200182805461088d90612c6d565b80156108da5780601f106108af576101008083540402835291602001916108da565b820191906000526020600020905b8154815290600101906020018083116108bd57829003601f168201915b5050505050905090565b6108f66108ef610d8e565b8383611189565b5050565b61090b610905610d8e565b83610e4f565b61094a576040517f08c379a00000000000000000000000000000000000000000000000000000000081526004016109419061296b565b60405180910390fd5b610956848484846112f6565b50505050565b6000600754905061097d848260405180602001604052806000815250611352565b6000821115610992576109918184846113ad565b5b60018161099f9190612aa2565b60078190555050505050565b60606109b682610d22565b6109f5576040517f08c379a00000000000000000000000000000000000000000000000000000000081526004016109ec9061292b565b60405180910390fd5b60006109ff6114a9565b90506000815111610a1f5760405180602001604052806000815250610a4a565b80610a29846114c0565b604051602001610a3a92919061269a565b6040516020818303038152906040525b915050919050565b6000600754905082518451148015610a6b575081518451145b610aaa576040517f08c379a0000000000000000000000000000000000000000000000000000000008152600401610aa1906128cb565b60405180910390fd5b60005b8451811015610c0657610b10858281518110610af2577f4e487b7100000000000000000000000000000000000000000000000000000000600052603260045260246000fd5b60200260200101518360405180602001604052806000815250611352565b6000838281518110610b4b577f4e487b7100000000000000000000000000000000000000000000000000000000600052603260045260246000fd5b60200260200101511115610be557610be482858381518110610b96577f4e487b7100000000000000000000000000000000000000000000000000000000600052603260045260246000fd5b6020026020010151858481518110610bd7577f4e487b7100000000000000000000000000000000000000000000000000000000600052603260045260246000fd5b60200260200101516113ad565b5b8180610bf090612c9f565b9250508080610bfe90612c9f565b915050610aad565b508060078190555050505050565b6000600560008473ffffffffffffffffffffffffffffffffffffffff1673ffffffffffffffffffffffffffffffffffffffff16815260200190815260200160002060008373ffffffffffffffffffffffffffffffffffffffff1673ffffffffffffffffffffffffffffffffffffffff16815260200190815260200160002060009054906101000a900460ff16905092915050565b60007f2a55205a000000000000000000000000000000000000000000000000000000007bffffffffffffffffffffffffffffffffffffffffffffffffffffffff1916827bffffffffffffffffffffffffffffffffffffffffffffffffffffffff19161480610d1b5750610d1a8261166d565b5b9050919050565b60008073ffffffffffffffffffffffffffffffffffffffff166002600084815260200190815260200160002060009054906101000a900473ffffffffffffffffffffffffffffffffffffffff1673ffffffffffffffffffffffffffffffffffffffff1614159050919050565b600033905090565b816004600083815260200190815260200160002060006101000a81548173ffffffffffffffffffffffffffffffffffffffff021916908373ffffffffffffffffffffffffffffffffffffffff160217905550808273ffffffffffffffffffffffffffffffffffffffff16610e09836106e8565b73ffffffffffffffffffffffffffffffffffffffff167f8c5be1e5ebec7d5bd14f71427d1e84f3dd0314c0f7b2291e5b200ac8c7c3b92560405160405180910390a45050565b6000610e5a82610d22565b610e99576040517f08c379a0000000000000000000000000000000000000000000000000000000008152600401610e909061282b565b60405180910390fd5b6000610ea4836106e8565b90508073ffffffffffffffffffffffffffffffffffffffff168473ffffffffffffffffffffffffffffffffffffffff161480610f1357508373ffffffffffffffffffffffffffffffffffffffff16610efb846103fa565b73ffffffffffffffffffffffffffffffffffffffff16145b80610f245750610f238185610c14565b5b91505092915050565b8273ffffffffffffffffffffffffffffffffffffffff16610f4d826106e8565b73ffffffffffffffffffffffffffffffffffffffff1614610fa3576040517f08c379a0000000000000000000000000000000000000000000000000000000008152600401610f9a9061290b565b60405180910390fd5b600073ffffffffffffffffffffffffffffffffffffffff168273ffffffffffffffffffffffffffffffffffffffff161415611013576040517f08c379a000000000000000000000000000000000000000000000000000000000815260040161100a906127eb565b60405180910390fd5b61101e83838361174f565b611029600082610d96565b6001600360008573ffffffffffffffffffffffffffffffffffffffff1673ffffffffffffffffffffffffffffffffffffffff16815260200190815260200160002060008282546110799190612b83565b925050819055506001600360008473ffffffffffffffffffffffffffffffffffffffff1673ffffffffffffffffffffffffffffffffffffffff16815260200190815260200160002060008282546110d09190612aa2565b92505081905550816002600083815260200190815260200160002060006101000a81548173ffffffffffffffffffffffffffffffffffffffff021916908373ffffffffffffffffffffffffffffffffffffffff160217905550808273ffffffffffffffffffffffffffffffffffffffff168473ffffffffffffffffffffffffffffffffffffffff167fddf252ad1be2c89b69c2b068fc378daa952ba7f163c4a11628f55a4df523b3ef60405160405180910390a4505050565b8173ffffffffffffffffffffffffffffffffffffffff168373ffffffffffffffffffffffffffffffffffffffff1614156111f8576040517f08c379a00000000000000000000000000000000000000000000000000000000081526004016111ef9061280b565b60405180910390fd5b80600560008573ffffffffffffffffffffffffffffffffffffffff1673ffffffffffffffffffffffffffffffffffffffff16815260200190815260200160002060008473ffffffffffffffffffffffffffffffffffffffff1673ffffffffffffffffffffffffffffffffffffffff16815260200190815260200160002060006101000a81548160ff0219169083151502179055508173ffffffffffffffffffffffffffffffffffffffff168373ffffffffffffffffffffffffffffffffffffffff167f17307eab39ab6107e8899845ad3d59bd9653f200f220920489ca2b5937696c31836040516112e9919061274e565b60405180910390a3505050565b611301848484610f2d565b61130d84848484611754565b61134c576040517f08c379a0000000000000000000000000000000000000000000000000000000008152600401611343906127ab565b60405180910390fd5b50505050565b61135c83836118eb565b6113696000848484611754565b6113a8576040517f08c379a000000000000000000000000000000000000000000000000000000000815260040161139f906127ab565b60405180910390fd5b505050565b6127108111156113f2576040517f08c379a00000000000000000000000000000000000000000000000000000000081526004016113e99061278b565b60405180910390fd5b60405180604001604052808373ffffffffffffffffffffffffffffffffffffffff1681526020018262ffffff168152506006600085815260200190815260200160002060008201518160000160006101000a81548173ffffffffffffffffffffffffffffffffffffffff021916908373ffffffffffffffffffffffffffffffffffffffff16021790555060208201518160000160146101000a81548162ffffff021916908362ffffff160217905550905050505050565b606060405180602001604052806000815250905090565b60606000821415611508576040518060400160405280600181526020017f30000000000000000000000000000000000000000000000000000000000000008152509050611668565b600082905060005b6000821461153a57808061152390612c9f565b915050600a826115339190612af8565b9150611510565b60008167ffffffffffffffff81111561157c577f4e487b7100000000000000000000000000000000000000000000000000000000600052604160045260246000fd5b6040519080825280601f01601f1916602001820160405280156115ae5781602001600182028036833780820191505090505b5090505b60008514611661576001826115c79190612b83565b9150600a856115d69190612ce8565b60306115e29190612aa2565b60f81b81838151811061161e577f4e487b7100000000000000000000000000000000000000000000000000000000600052603260045260246000fd5b60200101907effffffffffffffffffffffffffffffffffffffffffffffffffffffffffffff1916908160001a905350600a8561165a9190612af8565b94506115b2565b8093505050505b919050565b60007f80ac58cd000000000000000000000000000000000000000000000000000000007bffffffffffffffffffffffffffffffffffffffffffffffffffffffff1916827bffffffffffffffffffffffffffffffffffffffffffffffffffffffff1916148061173857507f5b5e139f000000000000000000000000000000000000000000000000000000007bffffffffffffffffffffffffffffffffffffffffffffffffffffffff1916827bffffffffffffffffffffffffffffffffffffffffffffffffffffffff1916145b80611748575061174782611ab9565b5b9050919050565b505050565b60006117758473ffffffffffffffffffffffffffffffffffffffff16611b23565b156118de578373ffffffffffffffffffffffffffffffffffffffff1663150b7a0261179e610d8e565b8786866040518563ffffffff1660e01b81526004016117c094939291906126d9565b602060405180830381600087803b1580156117da57600080fd5b505af192505050801561180b57506040513d601f19601f820116820180604052508101906118089190611f9a565b60015b61188e573d806000811461183b576040519150601f19603f3d011682016040523d82523d6000602084013e611840565b606091505b50600081511415611886576040517f08c379a000000000000000000000000000000000000000000000000000000000815260040161187d906127ab565b60405180910390fd5b805181602001fd5b63150b7a0260e01b7bffffffffffffffffffffffffffffffffffffffffffffffffffffffff1916817bffffffffffffffffffffffffffffffffffffffffffffffffffffffff1916149150506118e3565b600190505b949350505050565b600073ffffffffffffffffffffffffffffffffffffffff168273ffffffffffffffffffffffffffffffffffffffff16141561195b576040517f08c379a0000000000000000000000000000000000000000000000000000000008152600401611952906128ab565b60405180910390fd5b61196481610d22565b156119a4576040517f08c379a000000000000000000000000000000000000000000000000000000000815260040161199b906127cb565b60405180910390fd5b6119b06000838361174f565b6001600360008473ffffffffffffffffffffffffffffffffffffffff1673ffffffffffffffffffffffffffffffffffffffff1681526020019081526020016000206000828254611a009190612aa2565b92505081905550816002600083815260200190815260200160002060006101000a81548173ffffffffffffffffffffffffffffffffffffffff021916908373ffffffffffffffffffffffffffffffffffffffff160217905550808273ffffffffffffffffffffffffffffffffffffffff16600073ffffffffffffffffffffffffffffffffffffffff167fddf252ad1be2c89b69c2b068fc378daa952ba7f163c4a11628f55a4df523b3ef60405160405180910390a45050565b60007f01ffc9a7000000000000000000000000000000000000000000000000000000007bffffffffffffffffffffffffffffffffffffffffffffffffffffffff1916827bffffffffffffffffffffffffffffffffffffffffffffffffffffffff1916149050919050565b600080823b905060008111915050919050565b6000611b49611b44846129d7565b6129a6565b90508083825260208201905082856020860282011115611b6857600080fd5b60005b85811015611b985781611b7e8882611c4c565b845260208401935060208301925050600181019050611b6b565b5050509392505050565b6000611bb5611bb084612a03565b6129a6565b90508083825260208201905082856020860282011115611bd457600080fd5b60005b85811015611c045781611bea8882611d1e565b845260208401935060208301925050600181019050611bd7565b5050509392505050565b6000611c21611c1c84612a2f565b6129a6565b905082815260208101848484011115611c3957600080fd5b611c44848285612c2b565b509392505050565b600081359050611c5b81612de6565b92915050565b600082601f830112611c7257600080fd5b8135611c82848260208601611b36565b91505092915050565b600082601f830112611c9c57600080fd5b8135611cac848260208601611ba2565b91505092915050565b600081359050611cc481612dfd565b92915050565b600081359050611cd981612e14565b92915050565b600081519050611cee81612e14565b92915050565b600082601f830112611d0557600080fd5b8135611d15848260208601611c0e565b91505092915050565b600081359050611d2d81612e2b565b92915050565b600060208284031215611d4557600080fd5b6000611d5384828501611c4c565b91505092915050565b60008060408385031215611d6f57600080fd5b6000611d7d85828601611c4c565b9250506020611d8e85828601611c4c565b9150509250929050565b600080600060608486031215611dad57600080fd5b6000611dbb86828701611c4c565b9350506020611dcc86828701611c4c565b9250506040611ddd86828701611d1e565b9150509250925092565b60008060008060808587031215611dfd57600080fd5b6000611e0b87828801611c4c565b9450506020611e1c87828801611c4c565b9350506040611e2d87828801611d1e565b925050606085013567ffffffffffffffff811115611e4a57600080fd5b611e5687828801611cf4565b91505092959194509250565b60008060408385031215611e7557600080fd5b6000611e8385828601611c4c565b9250506020611e9485828601611cb5565b9150509250929050565b60008060408385031215611eb157600080fd5b6000611ebf85828601611c4c565b9250506020611ed085828601611d1e565b9150509250929050565b600080600060608486031215611eef57600080fd5b600084013567ffffffffffffffff811115611f0957600080fd5b611f1586828701611c61565b935050602084013567ffffffffffffffff811115611f3257600080fd5b611f3e86828701611c61565b925050604084013567ffffffffffffffff811115611f5b57600080fd5b611f6786828701611c8b565b9150509250925092565b600060208284031215611f8357600080fd5b6000611f9184828501611cca565b91505092915050565b600060208284031215611fac57600080fd5b6000611fba84828501611cdf565b91505092915050565b600060208284031215611fd557600080fd5b6000611fe384828501611d1e565b91505092915050565b60008060408385031215611fff57600080fd5b600061200d85828601611d1e565b925050602061201e85828601611d1e565b9150509250929050565b61203181612bb7565b82525050565b61204081612bc9565b82525050565b600061205182612a5f565b61205b8185612a75565b935061206b818560208601612c3a565b61207481612dd5565b840191505092915050565b600061208a82612a6a565b6120948185612a86565b93506120a4818560208601612c3a565b6120ad81612dd5565b840191505092915050565b60006120c382612a6a565b6120cd8185612a97565b93506120dd818560208601612c3a565b80840191505092915050565b60006120f6601a83612a86565b91507f45524332393831526f79616c746965733a20546f6f20686967680000000000006000830152602082019050919050565b6000612136603283612a86565b91507f4552433732313a207472616e7366657220746f206e6f6e20455243373231526560008301527f63656976657220696d706c656d656e74657200000000000000000000000000006020830152604082019050919050565b600061219c601c83612a86565b91507f4552433732313a20746f6b656e20616c7265616479206d696e746564000000006000830152602082019050919050565b60006121dc602483612a86565b91507f4552433732313a207472616e7366657220746f20746865207a65726f2061646460008301527f72657373000000000000000000000000000000000000000000000000000000006020830152604082019050919050565b6000612242601983612a86565b91507f4552433732313a20617070726f766520746f2063616c6c6572000000000000006000830152602082019050919050565b6000612282602c83612a86565b91507f4552433732313a206f70657261746f7220717565727920666f72206e6f6e657860008301527f697374656e7420746f6b656e00000000000000000000000000000000000000006020830152604082019050919050565b60006122e8603883612a86565b91507f4552433732313a20617070726f76652063616c6c6572206973206e6f74206f7760008301527f6e6572206e6f7220617070726f76656420666f7220616c6c00000000000000006020830152604082019050919050565b600061234e602a83612a86565b91507f4552433732313a2062616c616e636520717565727920666f7220746865207a6560008301527f726f2061646472657373000000000000000000000000000000000000000000006020830152604082019050919050565b60006123b4602983612a86565b91507f4552433732313a206f776e657220717565727920666f72206e6f6e657869737460008301527f656e7420746f6b656e00000000000000000000000000000000000000000000006020830152604082019050919050565b600061241a602083612a86565b91507f4552433732313a206d696e7420746f20746865207a65726f20616464726573736000830152602082019050919050565b600061245a601e83612a86565b91507f4552433732313a20417272617973206c656e677468206d69736d6174636800006000830152602082019050919050565b600061249a602c83612a86565b91507f4552433732313a20617070726f76656420717565727920666f72206e6f6e657860008301527f697374656e7420746f6b656e00000000000000000000000000000000000000006020830152604082019050919050565b6000612500602983612a86565b91507f4552433732313a207472616e73666572206f6620746f6b656e2074686174206960008301527f73206e6f74206f776e00000000000000000000000000000000000000000000006020830152604082019050919050565b6000612566602f83612a86565b91507f4552433732314d657461646174613a2055524920717565727920666f72206e6f60008301527f6e6578697374656e7420746f6b656e00000000000000000000000000000000006020830152604082019050919050565b60006125cc602183612a86565b91507f4552433732313a20617070726f76616c20746f2063757272656e74206f776e6560008301527f72000000000000000000000000000000000000000000000000000000000000006020830152604082019050919050565b6000612632603183612a86565b91507f4552433732313a207472616e736665722063616c6c6572206973206e6f74206f60008301527f776e6572206e6f7220617070726f7665640000000000000000000000000000006020830152604082019050919050565b61269481612c21565b82525050565b60006126a682856120b8565b91506126b282846120b8565b91508190509392505050565b60006020820190506126d36000830184612028565b92915050565b60006080820190506126ee6000830187612028565b6126fb6020830186612028565b612708604083018561268b565b818103606083015261271a8184612046565b905095945050505050565b600060408201905061273a6000830185612028565b612747602083018461268b565b9392505050565b60006020820190506127636000830184612037565b92915050565b60006020820190508181036000830152612783818461207f565b905092915050565b600060208201905081810360008301526127a4816120e9565b9050919050565b600060208201905081810360008301526127c481612129565b9050919050565b600060208201905081810360008301526127e48161218f565b9050919050565b60006020820190508181036000830152612804816121cf565b9050919050565b6000602082019050818103600083015261282481612235565b9050919050565b6000602082019050818103600083015261284481612275565b9050919050565b60006020820190508181036000830152612864816122db565b9050919050565b6000602082019050818103600083015261288481612341565b9050919050565b600060208201905081810360008301526128a4816123a7565b9050919050565b600060208201905081810360008301526128c48161240d565b9050919050565b600060208201905081810360008301526128e48161244d565b9050919050565b600060208201905081810360008301526129048161248d565b9050919050565b60006020820190508181036000830152612924816124f3565b9050919050565b6000602082019050818103600083015261294481612559565b9050919050565b60006020820190508181036000830152612964816125bf565b9050919050565b6000602082019050818103600083015261298481612625565b9050919050565b60006020820190506129a0600083018461268b565b92915050565b6000604051905081810181811067ffffffffffffffff821117156129cd576129cc612da6565b5b8060405250919050565b600067ffffffffffffffff8211156129f2576129f1612da6565b5b602082029050602081019050919050565b600067ffffffffffffffff821115612a1e57612a1d612da6565b5b602082029050602081019050919050565b600067ffffffffffffffff821115612a4a57612a49612da6565b5b601f19601f8301169050602081019050919050565b600081519050919050565b600081519050919050565b600082825260208201905092915050565b600082825260208201905092915050565b600081905092915050565b6000612aad82612c21565b9150612ab883612c21565b9250827fffffffffffffffffffffffffffffffffffffffffffffffffffffffffffffffff03821115612aed57612aec612d19565b5b828201905092915050565b6000612b0382612c21565b9150612b0e83612c21565b925082612b1e57612b1d612d48565b5b828204905092915050565b6000612b3482612c21565b9150612b3f83612c21565b9250817fffffffffffffffffffffffffffffffffffffffffffffffffffffffffffffffff0483118215151615612b7857612b77612d19565b5b828202905092915050565b6000612b8e82612c21565b9150612b9983612c21565b925082821015612bac57612bab612d19565b5b828203905092915050565b6000612bc282612c01565b9050919050565b60008115159050919050565b60007fffffffff0000000000000000000000000000000000000000000000000000000082169050919050565b600073ffffffffffffffffffffffffffffffffffffffff82169050919050565b6000819050919050565b82818337600083830152505050565b60005b83811015612c58578082015181840152602081019050612c3d565b83811115612c67576000848401525b50505050565b60006002820490506001821680612c8557607f821691505b60208210811415612c9957612c98612d77565b5b50919050565b6000612caa82612c21565b91507fffffffffffffffffffffffffffffffffffffffffffffffffffffffffffffffff821415612cdd57612cdc612d19565b5b600182019050919050565b6000612cf382612c21565b9150612cfe83612c21565b925082612d0e57612d0d612d48565b5b828206905092915050565b7f4e487b7100000000000000000000000000000000000000000000000000000000600052601160045260246000fd5b7f4e487b7100000000000000000000000000000000000000000000000000000000600052601260045260246000fd5b7f4e487b7100000000000000000000000000000000000000000000000000000000600052602260045260246000fd5b7f4e487b7100000000000000000000000000000000000000000000000000000000600052604160045260246000fd5b6000601f19601f8301169050919050565b612def81612bb7565b8114612dfa57600080fd5b50565b612e0681612bc9565b8114612e1157600080fd5b50565b612e1d81612bd5565b8114612e2857600080fd5b50565b612e3481612c21565b8114612e3f57600080fd5b5056fea2646970667358221220d9abf47a0a7a82e7881fb3fa11c638ba0199c5d9966b7601b3f47bcb4640f43b64736f6c63430008000033",
  "immutableReferences": {},
  "source": "//SPDX-License-Identifier: MIT\npragma solidity ^0.8.0;\n\nimport '@openzeppelin/contracts/token/ERC721/ERC721.sol';\n\nimport '../ERC2981PerTokenRoyalties.sol';\n\n/// @title Example of ERC721 contract with ERC2981\n/// @author Simon Fremaux (@dievardump)\n/// @notice This is a mock, mint and mintBatch are not protected. Please do not use as-is in production\ncontract ERC721WithRoyalties is ERC721, ERC2981PerTokenRoyalties {\n    uint256 nextTokenId;\n\n    constructor(string memory name_, string memory symbol_)\n        ERC721(name_, symbol_)\n    {}\n\n    /// @inheritdoc\tERC165\n    function supportsInterface(bytes4 interfaceId)\n        public\n        view\n        virtual\n        override(ERC721, ERC2981Base)\n        returns (bool)\n    {\n        return super.supportsInterface(interfaceId);\n    }\n\n    /// @notice Mint one token to `to`\n    /// @param to the recipient of the token\n    /// @param royaltyRecipient the recipient for royalties (if royaltyValue > 0)\n    /// @param royaltyValue the royalties asked for (EIP2981)\n    function mint(\n        address to,\n        address royaltyRecipient,\n        uint256 royaltyValue\n    ) external {\n        uint256 tokenId = nextTokenId;\n        _safeMint(to, tokenId, '');\n\n        if (royaltyValue > 0) {\n            _setTokenRoyalty(tokenId, royaltyRecipient, royaltyValue);\n        }\n\n        nextTokenId = tokenId + 1;\n    }\n\n    /// @notice Mint several tokens at once\n    /// @param recipients an array of recipients for each token\n    /// @param royaltyRecipients an array of recipients for royalties (if royaltyValues[i] > 0)\n    /// @param royaltyValues an array of royalties asked for (EIP2981)\n    function mintBatch(\n        address[] memory recipients,\n        address[] memory royaltyRecipients,\n        uint256[] memory royaltyValues\n    ) external {\n        uint256 tokenId = nextTokenId;\n        require(\n            recipients.length == royaltyRecipients.length &&\n                recipients.length == royaltyValues.length,\n            'ERC721: Arrays length mismatch'\n        );\n\n        for (uint256 i; i < recipients.length; i++) {\n            _safeMint(recipients[i], tokenId, '');\n            if (royaltyValues[i] > 0) {\n                _setTokenRoyalty(\n                    tokenId,\n                    royaltyRecipients[i],\n                    royaltyValues[i]\n                );\n            }\n            tokenId++;\n        }\n\n        nextTokenId = tokenId;\n    }\n}\n",
  "sourcePath": "/Users/intrepidshape/Documents/Projects/EIP2981-implementation/contracts/mocks/ERC721WithRoyalties.sol",
  "compiler": {
    "name": "solc",
    "version": "0.8.0+commit.c7dfd78e.Emscripten.clang"
  },
  "schemaVersion": "3.4.3",
  "updatedAt": "2021-12-16T12:28:22.202Z",
  "networkType": "ethereum",
  "devdoc": {
    "author": "Simon Fremaux (@dievardump)",
    "kind": "dev",
    "methods": {
      "approve(address,uint256)": {
        "details": "See {IERC721-approve}."
      },
      "balanceOf(address)": {
        "details": "See {IERC721-balanceOf}."
      },
      "getApproved(uint256)": {
        "details": "See {IERC721-getApproved}."
      },
      "isApprovedForAll(address,address)": {
        "details": "See {IERC721-isApprovedForAll}."
      },
      "mint(address,address,uint256)": {
        "params": {
          "royaltyRecipient": "the recipient for royalties (if royaltyValue > 0)",
          "royaltyValue": "the royalties asked for (EIP2981)",
          "to": "the recipient of the token"
        }
      },
      "mintBatch(address[],address[],uint256[])": {
        "params": {
          "recipients": "an array of recipients for each token",
          "royaltyRecipients": "an array of recipients for royalties (if royaltyValues[i] > 0)",
          "royaltyValues": "an array of royalties asked for (EIP2981)"
        }
      },
      "name()": {
        "details": "See {IERC721Metadata-name}."
      },
      "ownerOf(uint256)": {
        "details": "See {IERC721-ownerOf}."
      },
      "royaltyInfo(uint256,uint256)": {
        "params": {
          "_tokenId": "- the NFT asset queried for royalty information",
          "_value": "- the sale price of the NFT asset specified by _tokenId"
        },
        "returns": {
          "receiver": "- address of who should be sent the royalty payment",
          "royaltyAmount": "- the royalty payment amount for value sale price"
        }
      },
      "safeTransferFrom(address,address,uint256)": {
        "details": "See {IERC721-safeTransferFrom}."
      },
      "safeTransferFrom(address,address,uint256,bytes)": {
        "details": "See {IERC721-safeTransferFrom}."
      },
      "setApprovalForAll(address,bool)": {
        "details": "See {IERC721-setApprovalForAll}."
      },
      "supportsInterface(bytes4)": {
        "details": "See {IERC165-supportsInterface}."
      },
      "symbol()": {
        "details": "See {IERC721Metadata-symbol}."
      },
      "tokenURI(uint256)": {
        "details": "See {IERC721Metadata-tokenURI}."
      },
      "transferFrom(address,address,uint256)": {
        "details": "See {IERC721-transferFrom}."
      }
    },
    "title": "Example of ERC721 contract with ERC2981",
    "version": 1
  },
  "userdoc": {
    "kind": "user",
    "methods": {
      "mint(address,address,uint256)": {
        "notice": "Mint one token to `to`"
      },
      "mintBatch(address[],address[],uint256[])": {
        "notice": "Mint several tokens at once"
      }
    },
    "notice": "This is a mock, mint and mintBatch are not protected. Please do not use as-is in production",
    "version": 1
  }
}